:100000000C94B1000C94CE000C94CE000C94CE0055
:100010000C94CE000C94CE000C94CE000C94CE0028
:100020000C94CE000C94CE000C94CE000C94CE0018
:100030000C94CE000C94CE000C94CE000C94CE0008
:100040000C94CE000C94CE000C94CE000C94CE00F8
:100050000C94CE000C94CE000C94CE000C94CE00E8
:100060000C94CE000C94CE0000407A10F35A00A0FD
:10007000724E18090010A5D4E80000E87648170071
:1000800000E40B54020000CA9A3B000000E1F505B1
:10009000000080969800000040420F000000A086FB
:1000A00001000000102700000000E803000000002D
:1000B0006400000000000A000000000001000000D1
:1000C00000002C76D888DC674F0823DFC1DFAE59EB
:1000D000E1B1B796E5E3E453C63AE651997696E87E
:1000E000E6C28426EB898C9B62ED407C6FFCEFBC02
:1000F0009C9F40F2BAA56FA5F490055A2AF75C932D
:100100006B6CF9676DC11BFCE0E40D47FEF520E662
:10011000B500D0ED902E0300943577050080841E45
:10012000080000204E0A000000C80C333333330FA0
:10013000986E12831141EF8D2114893BE65516CF3D
:10014000FEE6DB18D1844B381BF77C1D901DA4BB49
:10015000E424203284725E228100C9F124ECA1E5FE
:100160003D2711241FBECFEFD8E0DEBFCDBF12E088
:10017000A0E0B1E0EAEFF3E102C005900D92A436F1
:10018000B107D9F722E0A4E6B2E001C01D92A4377E
:10019000B207E1F70E94AD020C94FB090C94000039
:1001A0001092B90089E48093B800089584EA80939E
:1001B000BC008091BC0087FFFCCF8091B900887F94
:1001C000883049F08091B900887F803121F08EE03D
:1001D00091E00C94A501089584E98093BC000895F2
:1001E0000F931F93CF938C01C62F4093BB0084E8DD
:1001F0008093BC008091BC0087FFFCCF8091B90048
:10020000887F883121F080E391E00E94A501F80108
:10021000C13021F06C2F70E024E81AC080818093F7
:10022000BB0084E88093BC008091BC0087FFFCCFBA
:100230008091B900887F8832B9F08BE591E0CF9149
:100240001F910F910C94A5018091BC0087FFFCCFFA
:10025000CF01801B910B8617970734F4819180930F
:10026000BB002093BC00F0CFCF911F910F91089558
:100270001F93CF93DF93EC01162F4093BB0084E8CC
:100280008093BC008091BC0087FFFCCF8091B900B7
:10029000887F803421F085E891E00E94A50111302B
:1002A00031F0FE01812F90E0019744EC1BC084E8FF
:1002B0008093BC008091BC0087FFFCCF8091BB0085
:1002C00088838091B900887F8835A9F08AEB91E016
:1002D0000E94A50110C02091BC0027FFFCCF2091F7
:1002E000BB0021939F012C1B3D0B281739071CF4E1
:1002F0004093BC00F0CF84E88093BC008091BC00A8
:1003000087FFFCCF8091BB00C10FD11D219788834F
:10031000DF91CF911F9108951092C50088E08093DE
:10032000C400E1ECF0E080818861808308959091C1
:10033000C00095FFFCCF8093C60008958091C00057
:1003400087FFFCCF8091C6000895CF93DF93EC0127
:100350008991882319F00E949701FACFDF91CF91FC
:100360000895CF93DF93EC0168EB71E00E94E00405
:10037000CE01DF91CF910C94A501CF93C82F8A3085
:1003800019F48DE00E9497018C2F0E94970180E064
:1003900090E0CF910895CF93DF9300D000D0CDB7F8
:1003A000DEB78CE18B831C8288E3898381E08A83BA
:1003B0000E94D60040ED62E0CE0103960E94F0005C
:1003C0000E94EC000E94D60040ED62E0CE01019652
:1003D0000E94F0000E94EC000F900F900F900F9081
:1003E000DF91CF9108950F931F93CF93DF931F92C7
:1003F000CDB7DEB78C018BE389830E94D60040ED38
:1004000061E0CE0101960E94F0000E94D60041ED0D
:1004100066E084E692E00E9438010E94EC00E4E687
:10042000F2E080819181982789279827D801119639
:100430009C938E938281938198278927982713967E
:100440009C938E931297848195819827892798276A
:1004500015969C938E9314970F90DF91CF911F91D7
:100460000F910895FC0180819181861B970B9183E8
:10047000808382819381841B950B93838283848103
:100480009581821B930B958384830895EF92FF924D
:100490000F931F93CF93DF938C01EB01FC01E0805E
:1004A000F180B7010F2C000C880B990B0E94C70339
:1004B00020E030E040E858E30E9402042DEC3CECE0
:1004C0004CE151E40E940204688379838A839B8310
:1004D000FF92EF928DEE91E09F938F930E94EB0439
:1004E000F80162817381072E000C880B990B0E9422
:1004F000C70320E030E040E858E30E9402042DECFE
:100500003CEC4CE151E40E9402046C837D838E83B9
:100510009F83F80164817581072E000C880B990B6D
:100520000E94C70320E030E040E858E30E94020444
:100530002DEC3CEC4CE151E40E9402046887798781
:100540008A879B870F900F900F900F90DF91CF912C
:100550001F910F91FF90EF900895CF93DF93CDB748
:10056000DEB7E2970FB6F894DEBF0FBECDBF85E2CF
:1005700084B90E948C010E94D0000E94CB0180E0CF
:1005800091E0909371028093700252E3452E512CBA
:10059000812C60E8962EAA24AA947FE7B72EC12C5E
:1005A000E0E8DE2EEE24EA94FFE7FF2E00E010E8FC
:1005B00066246A94AFE77A2EB5EE2B2EB1E03B2E7F
:1005C000CE0185960E94F3018AA58F9389A58F930A
:1005D00088A58F938FA18F938EA18F938DA18F93D9
:1005E0003F922F920E94EB048DA19EA10FB6F8942A
:1005F000DEBF0FBECDBF861597050CF43C01081772
:1006000019070CF48C018FA198A58E159F050CF489
:100610007C01C816D9060CF46C0189A59AA58A1527
:100620009B050CF45C01881699060CF44C0131E032
:10063000431A510829F6C801860D971D97FD0196AA
:100640009C01359527953CA72BA73BA53DA78CA5DD
:100650008EA716012E0C3F1C37FE03C09FEF291AF0
:10066000390A359427942FA638AA24014A0C5B1C1A
:1006700057FE03C02FEF421A520A5594479449AAD5
:100680005AAA9F928F92BF92AF92DF92CF92FF921F
:10069000EF921F930F937F926F9281EF91E09F9360
:1006A0008F930E94EB045F924F923F922F923CA552
:1006B0003F938BA58F938EE292E09F938F930E943E
:1006C000EB040FB6F894DEBF0FBECDBF7E013DE157
:1006D000E30EF11C6E0185E1C80ED11C5E019DE0A8
:1006E000A90EB11C98E5892E92E0992ECE0185962F
:1006F0000E94F30129A93AA94FA558A96DA57EA585
:10070000CE0185960E943202BE016F5F7F4FCE01FF
:1007100085960E94460269817A818B819C8187013E
:1007200024E030E046E050E00E94C0046D817E810C
:100730008F819885860124E030E046E050E00E94F9
:10074000C00469857A858B859C85850124E030E02D
:1007500046E050E00E94C004BF92AF92DF92CF9279
:10076000FF92EF929F928F920E94EB042FEF31EE57
:1007700084E0215030408040E1F700C000000FB617
:10078000F894DEBF0FBECDBFB1CFE89409C097FB90
:100790003EF490958095709561957F4F8F4F9F4F58
:1007A0009923A9F0F92F96E9BB279395F69587959C
:1007B00077956795B795F111F8CFFAF4BB0F11F45F
:1007C00060FF1BC06F5F7F4F8F4F9F4F16C0882306
:1007D00011F096E911C0772321F09EE8872F762F3C
:1007E00005C0662371F096E8862F70E060E02AF07D
:1007F0009A95660F771F881FDAF7880F9695879569
:1008000097F908950E9415040C9486040E947804B8
:1008100038F00E947F0420F0952311F00C946F04AF
:100820000C94750411240C94BA040E94970470F37C
:10083000959FC1F3950F50E0551F629FF001729F85
:10084000BB27F00DB11D639FAA27F00DB11DAA1F94
:10085000649F6627B00DA11D661F829F2227B00DE1
:10086000A11D621F739FB00DA11D621F839FA00D6C
:10087000611D221F749F3327A00D611D231F849FBC
:10088000600D211D822F762F6A2F11249F57504013
:100890009AF0F1F088234AF0EE0FFF1FBB1F661F8E
:1008A000771F881F91505040A9F79E3F510580F057
:1008B0000C946F040C94BA045F3FE4F3983ED4F3B5
:1008C000869577956795B795F795E7959F5FC1F7FB
:1008D000FE2B880F911D9695879597F9089597F9A6
:1008E0009F6780E870E060E008959FEF80EC0895D6
:1008F00000240A94161617061806090608950024FF
:100900000A9412161306140605060895092E039478
:10091000000C11F4882352F0BB0F40F4BF2B11F4EC
:1009200060FF04C06F5F7F4F8F4F9F4F089557FD4B
:100930009058440F551F59F05F3F71F04795880F4D
:1009400097FB991F61F09F3F79F0879508951216E4
:1009500013061406551FF2CF4695F1DF08C0161690
:1009600017061806991FF1CF869571056105089441
:100970000895E894BB2766277727CB0197F9089558
:10098000EF920F931F93CF93DF93E80147FD02C0CF
:1009900034E001C034E1042E000C550B57FF03C0B6
:1009A000519541955109E32E022F242FAE010E944B
:1009B000E206CE01DF91CF911F910F91EF90089544
:1009C000FB01DC010D900020E9F7119701900D92D9
:1009D0000020E1F70895A0E0B0E0E1EFF4E00C942E
:1009E000D409AE014B5F5F4FFA0161917191AF0184
:1009F00080917002909171020E940105E2E00C94D6
:100A0000F009ABE0B0E0E7E0F5E00C94C4096C015C
:100A10007B018A01FC0117821682838181FFCCC190
:100A2000CE0101963C01F6019381F70193FD85917A
:100A300093FF81917F01882309F4BAC1853239F48B
:100A400093FD859193FF81917F01853229F4B60151
:100A500090E00E942A09E7CF912C212C312CFFE154
:100A6000F315D8F08B3279F038F4803279F0833294
:100A7000A1F4232D20611DC08D3261F0803369F413
:100A8000232D216016C0832D8260382EE32DE46073
:100A90003E2E2AC0F32DF8601DC037FC2DC020ED7E
:100AA000280F2A3040F08E32B9F436FC81C1232D54
:100AB0002064322E19C036FE06C08AE0989E200DB2
:100AC0001124922E11C0EAE02E9E200D1124222E18
:100AD000F32DF0623F2E08C08C3621F4832D806800
:100AE000382E02C0883641F4F70193FD859193FFBB
:100AF00081917F018111B3CF982F9F7D95549330C1
:100B000028F40C5F1F4F9FE399830DC0833631F0AB
:100B1000833771F0833509F059C021C0F801808115
:100B200089830E5F1F4F88248394912C530113C037
:100B30002801F2E04F0E511CF801A080B18036FE72
:100B400003C0692D70E002C06FEF7FEFC5010E9406
:100B50001F094C018201F32DFF773F2E16C028019B
:100B600022E0420E511CF801A080B18036FE03C085
:100B7000692D70E002C06FEF7FEFC5010E9414097C
:100B80004C01F32DF0683F2E820133FC1BC0822DF7
:100B900090E088169906B0F4B60180E290E00E94D9
:100BA0002A092A94F4CFF50137FC859137FE81910B
:100BB0005F01B60190E00E942A0921102A9421E0E9
:100BC000821A91088114910471F7E8C0843611F0FB
:100BD000893641F5F80137FE07C060817181828155
:100BE00093810C5F1F4F08C060817181072E000C3C
:100BF000880B990B0E5F1F4FF32DFF763F2E97FF4B
:100C000009C090958095709561957F4F8F4F9F4F4C
:100C1000F0683F2E2AE030E0A3010E946609882E8A
:100C2000861845C0853731F4232D2F7EB22E2AE059
:100C300030E025C0932D997FB92E8F36C1F018F47E
:100C4000883579F0B5C0803719F0883721F0B0C009
:100C5000E92FE061BE2EB4FE0DC0FB2DF460BF2E67
:100C600009C034FE0AC0292F2660B22E06C028E033
:100C700030E005C020E130E002C020E132E0F801C0
:100C8000B7FE07C060817181828193810C5F1F4F25
:100C900006C06081718180E090E00E5F1F4FA3016C
:100CA0000E946609882E8618FB2DFF773F2E36FEA0
:100CB0000DC0232D2E7FA22E891458F434FE0BC0B4
:100CC00032FC09C0832D8E7EA82E05C0B82CA32C23
:100CD00003C0B82C01C0B92CA4FE0FC0FE01E80D62
:100CE000F11D8081803321F49A2D997EA92E09C0AF
:100CF000A2FE06C0B394B39404C08A2D867809F08E
:100D0000B394A3FC11C0A0FE06C0B21488F4280C52
:100D1000922C9B180EC0B21460F4B60180E290E0F1
:100D20000E942A09B394F7CFB21418F42B1802C00A
:100D3000982C212CA4FE10C0B60180E390E00E9404
:100D40002A09A2FE17C0A1FC03C088E790E002C0F8
:100D500088E590E0B6010CC08A2D867859F0A1FE96
:100D600002C08BE201C080E2A7FC8DE2B60190E0F8
:100D70000E942A09891438F4B60180E390E00E94A9
:100D80002A099A94F7CF8A94F301E80DF11D808126
:100D9000B60190E00E942A098110F5CF222009F4C3
:100DA00042CEB60180E290E00E942A092A94F6CF52
:100DB000F6018681978102C08FEF9FEF2B96E2E1CB
:100DC0000C94E009A9E0B0E0E8EEF6E00C94CA0962
:100DD0006A01122FB02E2BE3201720F0FF24F3948A
:100DE000F00E02C02CE3F22E0F2D27E0AE014F5F74
:100DF0005F4F0E943C08BC014981842F897081307B
:100E000031F0E1FC06C0E0FE06C090E205C09DE2C4
:100E100003C09BE201C090E05E2D507143FF3CC0D7
:100E2000911102C083E001C084E0811718F4212FE2
:100E3000281B01C020E051110BC0F601822F30E2C7
:100E4000882319F031938150FBCFC20ED11C20E0D2
:100E5000992329F0D6019C93F60131966F01C601C2
:100E60000396E2FE0AC03EE4D6013C9341E41196AB
:100E70004C93119712963C9306C03EE6F6013083E0
:100E800041E641833283FC01322F40E2332309F4EF
:100E900042C041933150FACF42FF44C0911102C089
:100EA00083E001C084E0811718F4212F281B01C0C2
:100EB00020E051110BC0F601822F30E2882319F097
:100EC00031938150FBCFC20ED11C20E0992329F031
:100ED000D6019C93F60131966F01C6010396E2FE9E
:100EE0000BC039E4D6013C933EE411963C93119734
:100EF00036E412963C9307C039E6F60130833EE6AD
:100F0000318336E63283FC01322F40E2332319F07D
:100F100041933150FBCFFC01E20FF11D10828EEFA7
:100F20009FEFA6C021E030E0911102C020E030E048
:100F3000161617061CF4FB01319602C0E1E0F0E042
:100F40002E0F3F1FBB2021F0EB2DF0E0319602C0A9
:100F5000E0E0F0E02E0F3F1FE12FF0E02E173F07FB
:100F60001CF4121B212F01C020E08E2D887159F432
:100F7000F601822F30E2882319F031938150FBCFA4
:100F8000C20ED11C20E0992329F0D6019C93F601D2
:100F900031966F0151110BC0F601822F90E3882327
:100FA00019F091938150FBCFC20ED11C20E00F2D80
:100FB000060F9A81342F307144FF03C0913309F436
:100FC0000150101624F4093018F008E001C001E0C7
:100FD000AB0177FF02C040E050E0FB01E41BF50BE2
:100FE000A1E0B0E0AC0FBD1FEA0FFB1F8EE2A82E00
:100FF0004B01801A91080B2D10E0119501951109F4
:101000004F3FBFEF5B0721F4D601AC9211966D0103
:10101000641775072CF08416950614F4818101C0BD
:1010200080E3415051093196D60111967D01401758
:10103000510724F0D6018C936701E2CF641775073E
:1010400039F4963320F4953319F4311101C081E35A
:10105000F6018083F701822F90E2882319F09193A3
:101060008150FBCFF701E20FF11D108280E090E08C
:101070002996ECE00C94E609283008F027E03327A5
:10108000DA01990F311D87FD9160009661057105A8
:1010900039F432602E5F3D9330E32A95E1F70895ED
:1010A0009F3F30F080387105610509F03C5F3C5F7F
:1010B0003D93913008F08068911DDF93CF931F938B
:1010C0000F93FF92EF92192F987F9695E92F96959F
:1010D0009695E90FFF27EE53FF4F99273327EE240C
:1010E000FF24A701E70105900894079428F4360F20
:1010F000E71EF81E491F511D660F771F881F991F95
:101100000694A1F70590079428F4E70EF81E491FEE
:10111000561FC11D770F881F991F661F0694A1F7E0
:101120000590079428F4F80E491F561FC71FD11DBC
:10113000880F991F661F771F0694A1F705900794E3
:1011400020F4490F561FC71FD81F990F661F771F1E
:10115000881F0694A9F784911095177041F0D695D1
:10116000C79557954795F794E7941A95C1F7E8E620
:10117000F0E06894159015913591659195910590E1
:101180007FE27395E118F10A430B560BC90BD009A6
:10119000C0F7E10CF11E431F561FC91FD01D7EF47E
:1011A000703311F48A95E6CFE894015030F0080FBF
:1011B0000AF40027021708F4202F2395022F7A3310
:1011C00028F079E37D932A95E9F710C07D932A955D
:1011D00089F6069497956795379517951794E118B2
:1011E000F10A430B560BC90BD00998F023957E9159
:1011F00073957A3308F070E37C932013B8F77E91EF
:1012000070617D9330F0839571E37D9370E32A954F
:10121000E1F71124EF90FF900F911F91CF91DF9193
:10122000992787FD90950895FC01059061507040C5
:101230000110D8F7809590958E0F9F1F0895FC019F
:101240006150704001900110D8F7809590958E0FF5
:101250009F1F08950F931F93CF93DF93FB0123816B
:1012600021FD03C08FEF9FEF2CC022FF16C04681E7
:101270005781248135814217530744F4A081B181FD
:101280009D012F5F3F4F318320838C9326813781CF
:101290002F5F3F4F3783268314C08B01EC01FB0186
:1012A0000084F185E02D0995892BE1F6D801169689
:1012B0008D919C911797019617969C938E931697F4
:1012C000CE01DF91CF911F910F910895FA01AA27C6
:1012D000283051F1203181F1E8946F936E7F6E5F79
:1012E0007F4F8F4F9F4FAF4FB1E03ED0B4E03CD027
:1012F000670F781F891F9A1FA11D680F791F8A1F0A
:10130000911DA11D6A0F711D811D911DA11D20D070
:1013100009F468943F912AE0269F11243019305D2A
:101320003193DEF6CF010895462F4770405D41931B
:10133000B3E00FD0C9F7F6CF462F4F70405D4A3368
:1013400018F0495D31FD4052419302D0A9F7EACF30
:10135000B4E0A6959795879577956795BA95C9F75F
:1013600000976105710508959B01AC010A2E069452
:101370005795479537952795BA95C9F7620F731F0B
:10138000841F951FA01D08952F923F924F925F9248
:101390006F927F928F929F92AF92BF92CF92DF9285
:1013A000EF92FF920F931F93CF93DF93CDB7DEB7EA
:1013B000CA1BDB0B0FB6F894DEBF0FBECDBF09947E
:1013C0002A88398848885F846E847D848C849B84D5
:1013D000AA84B984C884DF80EE80FD800C811B81E3
:1013E000AA81B981CE0FD11D0FB6F894DEBF0FBE12
:0A13F000CDBFED010895F894FFCF82
:1013FA000000000200000000BD010000000053745C
:10140A00617274205472616E736D697373696F6E61
:10141A00206E6F742072656365697665642E0A00B2
:10142A00534C412B57206E6F742072656365697641
:10143A0065642073696E6365206E6F2041434B209B
:10144A00726573706F6E73652E0A0041434B206E8E
:10145A006F742072656365697665642066726F6D64
:10146A002073656E64696E672064617461206279B5
:10147A0074652E0A00536C61766520616464726536
:10148A007373206E6F74207472616E736D697474F5
:10149A00656420616E642041434B206E6F74207234
:1014AA00656365697665642E0A0044617461206229
:1014BA00797465206E6F74207265636569766564F8
:1014CA0020616E64204E41434B206E6F7420736519
:1014DA006E742E0A0025642C2025642C2025640AAB
:1014EA00006D696E5F783A2025642C206D61785F03
:1014FA00782025642C206D696E5F792025642C2064
:10150A006D61785F792025642C206D696E5F7A2081
:10151A0025642C206D61785F7A2025640A004F6665
:10152A006673657420583A2025642C204F666673CA
:10153A00657420593A2025642C204F6666736574B9
:10154A00205A3A2025640A0025732C2025732C2062
:04155A0025730A00EB
:00000001FF
