:100000000C9434000C9451000C9451000C94510049
:100010000C9451000C9451000C9451000C9451001C
:100020000C9451000C9451000C9451000C9451000C
:100030000C9451000C9451000C9451000C945100FC
:100040000C9451000C9451000C9451000C945100EC
:100050000C9451000C9451000C9451000C945100DC
:100060000C9451000C94510011241FBECFEFD8E026
:10007000DEBFCDBF12E0A0E0B1E0EEEEFFE002C0D7
:1000800005900D92A834B107D9F722E0A8E4B2E0B8
:1000900001C01D92A235B207E1F70E941A020C942A
:1000A000F5070C9400001092B90089E48093B80021
:1000B000089584EA8093BC008091BC0087FFFCCF48
:1000C0008091B900887F883049F08091B900887F9D
:1000D000803121F080E091E00C942801089584E9BA
:1000E0008093BC0008950F931F93CF938C01C62F6C
:1000F0004093BB0084E88093BC008091BC0087FFE4
:10010000FCCF8091B900887F883121F082E291E0B4
:100110000E942801F801C13021F06C2F70E024E822
:100120001AC080818093BB0084E88093BC008091DA
:10013000BC0087FFFCCF8091B900887F8832B9F07E
:100140008DE491E0CF911F910F910C942801809143
:10015000BC0087FFFCCFCF01801B910B8617970750
:1001600034F481918093BB002093BC00F0CFCF91F9
:100170001F910F9108951F93CF93DF93EC01162FDA
:100180004093BB0084E88093BC008091BC0087FF53
:10019000FCCF8091B900887F803421F087E791E01F
:1001A0000E942801113031F0FE01812F90E001976B
:1001B00044EC1BC084E88093BC008091BC0087FFA6
:1001C000FCCF8091BB0088838091B900887F8835FF
:1001D000A9F08CEA91E00E94280110C02091BC0097
:1001E00027FFFCCF2091BB0021939F012C1B3D0BCF
:1001F000281739071CF44093BC00F0CF84E88093A3
:10020000BC008091BC0087FFFCCF8091BB00C10F78
:10021000D11D21978883DF91CF911F91089510926E
:10022000C50088E08093C400E1ECF0E08081886143
:10023000808308959091C00095FFFCCF8093C60005
:1002400008958091C00087FFFCCF8091C60008957B
:10025000CF93DF93EC018991882319F00E941A0152
:10026000FACFDF91CF910895CF93DF93EC016AEA43
:1002700071E00E940005CE01DF91CF910C9428011E
:10028000CF93DF9300D000D0CDB7DEB78CE18B8366
:100290001C8288E3898381E08A830E94590040EDB3
:1002A00062E0CE0103960E9473000E946F000E94DC
:1002B000590040ED62E0CE0101960E9473000E9459
:1002C0006F000F900F900F900F90DF91CF910895D6
:1002D0000F931F93CF93DF931F92CDB7DEB78C019F
:1002E0008BE389830E94590040ED61E0CE010196C5
:1002F0000E9473000E94590041ED66E088E492E09C
:100300000E94BB000E946F00E8E4F2E080819181CE
:10031000982789279827D80111969C938E938281DC
:10032000938198278927982713969C938E931297E9
:100330008481958198278927982715969C938E9379
:1003400014970F90DF91CF911F910F910895FC01A9
:1003500080819181861B970B918380838281938119
:10036000841B950B9383828384819581821B930BDD
:100370009583848308950F931F93CF93DF938C010C
:10038000EB01FC016081718177FF02C06150704C0C
:10039000770F660B770F762F661F072E000C880BE2
:1003A000990B0E9407042DEC3CEC4CE151E40E94B7
:1003B0006B040E94CF0379836883F80162817381A3
:1003C00077FF02C06150704C770F660B770F762F66
:1003D000661F072E000C880B990B0E9407042DEC5A
:1003E0003CEC4CE151E40E946B040E94CF037B8300
:1003F0006A83F8016481758177FF02C06150704C97
:10040000770F660B770F762F661F072E000C880B71
:10041000990B0E9407042DEC3CEC4CE151E40E9446
:100420006B040E94CF037D836C83DF91CF911F917A
:100430000F910895CF93DF93CDB7DEB7C651D44067
:100440000FB6F894DEBF0FBECDBF85E284B90E941F
:100450000F010E9453000E94400162E3E62EF12C3E
:10046000812C70E8972EAA24AA94EFE7BE2EC12C07
:10047000F0E8DF2E66246A94AFE77A2E412CB0E8CC
:100480005B2E22242A941FE7312E8E010F5F1F4F0F
:10049000CE01895F9B4F0E946801C45FDB4F88815A
:1004A000CC50D4408F93C55FDB4F8881CB50D44074
:1004B0008F93C65FDB4F8881CA50D4408F93C75F4C
:1004C000DB4F8881C950D4408F93C85FDB4F888150
:1004D000C850D4408F93C95FDB4F8881C750D44048
:1004E0008F9327ED31E03F932F931F930F930E943B
:1004F0000B05C8010E943401C95FDB4F88819981D7
:10050000C750D4400FB6F894DEBF0FBECDBF8215E2
:1005100093050CF41C01481659060CF42C01C75F16
:10052000DB4F88819981C950D440861597050CF41A
:100530003C01C816D9060CF46C01C55FDB4F8881FD
:100540009981CB50D4408A159B050CF45C01881628
:1005500099060CF44C0131E0E31AF10809F098CF48
:100560007201E20CF31CFF92EF928FED91E09F93EA
:100570008F931F930F930E940B05C8010E943401B3
:100580000F900F900F900F900F900F90F7FE03C0F9
:100590008FEFE81AF80A970135952795C35FDB4F6F
:1005A00039832883CD50D440C35FDB4F3881CD5091
:1005B000D440CF5EDB4F3883C151D440C25FDB4FA4
:1005C0008881CE50D440CE5EDB4F8883C251D44068
:1005D000C601860D971D97FD01969C0135952795BF
:1005E000C15FDB4F39832883CF50D440C15FDB4FDD
:1005F0003881CF50D440CD5EDB4F3883C351D440D7
:10060000C05FDB4F8881C051D440CC5EDB4F888314
:10061000C451D4407401EA0CFB1CF7FE03C09FEFE9
:10062000E91AF90AF594E794CB5EDB4FE882C551ED
:10063000D440CA5EDB4FF882C651D4409F928F925D
:10064000BF92AF92DF92CF927F926F925F924F9262
:100650003F922F9282EE91E09F938F931F930F937F
:100660000E940B05C8010E943401FF92EF92C05F07
:10067000DB4F2881C051D4402F93C15FDB4F3881BD
:10068000CF50D4403F93C25FDB4F8881CE50D440DF
:100690008F93C35FDB4F9881CD50D4409F938EE101
:1006A00092E09F938F931F930F930E940B05C801B5
:1006B0000E9434010FB6F894DEBF0FBECDBF97ED98
:1006C000E92E91E0F92ECE01895F9B4F0E946801CF
:1006D000CB5EDB4F2881C551D440CA5EDB4F3881E9
:1006E000C651D440CD5EDB4F4881C351D440CC5E6F
:1006F000DB4F5881C451D440CF5EDB4F6881C1517C
:10070000D440CE5EDB4F7881C251D440CE01895FA8
:100710009B4F0E94A701BE016F5F7B4FCE01895F97
:100720009B4F0E94BB01CA5FDB4F8881C650D440FB
:100730008F93CB5FDB4F8881C550D4408F93CC5FC4
:10074000DB4F8881C450D4408F93CD5FDB4F8881CD
:10075000C350D4408F93CE5FDB4F8881C250D440CA
:100760008F93CF5FDB4F8881C150D4408F93FF922E
:10077000EF921F930F930E940B05C8010E94340152
:100780003FEF81EE94E0315080409040E1F700C0AF
:1007900000000FB6F894DEBF0FBECDBF94CF0E940D
:1007A000D6036894B1110C94650408950E944A041C
:1007B00088F09F5798F0B92F9927B751B0F0E1F022
:1007C000660F771F881F991F1AF0BA95C9F714C0D2
:1007D000B13091F00E946404B1E008950C94640477
:1007E000672F782F8827B85F39F0B93FCCF386950B
:1007F00077956795B395D9F73EF490958095709568
:1008000061957F4F8F4F9F4F0895E89409C097FBE4
:100810003EF490958095709561957F4F8F4F9F4FD7
:100820009923A9F0F92F96E9BB279395F69587951B
:1008300077956795B795F111F8CFFAF4BB0F11F4DE
:1008400060FF1BC06F5F7F4F8F4F9F4F16C0882385
:1008500011F096E911C0772321F09EE8872F762FBB
:1008600005C0662371F096E8862F70E060E02AF0FC
:100870009A95660F771F881FDAF7880F96958795E8
:1008800097F9089557FD9058440F551F59F05F3F51
:1008900071F04795880F97FB991F61F09F3F79F0A2
:1008A00087950895121613061406551FF2CF469524
:1008B000F1DF08C0161617061806991FF1CF8695A6
:1008C0007105610508940895E894BB27662777278A
:1008D000CB0197F908950E947E040C94EF040E94C6
:1008E000E10438F00E94E80420F0952311F00C9404
:1008F000D8040C94DE0411240C9465040E94420474
:1009000070F3959FC1F3950F50E0551F629FF00162
:10091000729FBB27F00DB11D639FAA27F00DB11D7B
:10092000AA1F649F6627B00DA11D661F829F222704
:10093000B00DA11D621F739FB00DA11D621F839F8B
:10094000A00D611D221F749F3327A00D611D231F61
:10095000849F600D211D822F762F6A2F11249F57AF
:1009600050409AF0F1F088234AF0EE0FFF1FBB1FB2
:10097000661F771F881F91505040A9F79E3F510571
:1009800080F00C94D8040C9465045F3FE4F3983E27
:10099000D4F3869577956795B795F795E7959F5F1B
:1009A000C1F7FE2B880F911D9695879597F90895AD
:1009B00097F99F6780E870E060E008959FEF80EC12
:1009C000089500240A9416161706180609060895B5
:1009D00000240A9412161306140605060895092E1B
:1009E0000394000C11F4882352F0BB0F40F4BF2B8A
:1009F00011F460FF04C06F5F7F4F8F4F9F4F0895CA
:100A0000FB01DC010D900020E9F7119701900D9298
:100A10000020E1F70895AEE0B0E0E1E1F5E00C94EC
:100A2000CC070D891E8986E08C831A8309838FEF9A
:100A30009FE79E838D83AE01475E5F4F6F89788D00
:100A4000CE0101960E942D05EF81F885E00FF11F80
:100A500010822E96E4E00C94E807ABE0B0E0E3E30C
:100A6000F5E00C94BE076C017B018A01FC01178242
:100A70001682838181FFCCC1CE0101963C01F60133
:100A80009381F70193FD859193FF81917F018823E5
:100A900009F4BAC1853239F493FD859193FF8191B0
:100AA0007F01853229F4B60190E00E942407E7CF48
:100AB000912C212C312CFFE1F315D8F08B3279F0F9
:100AC00038F4803279F08332A1F4232D20611DC0E7
:100AD0008D3261F0803369F4232D216016C0832D9F
:100AE0008260382EE32DE4603E2E2AC0F32DF8609C
:100AF0001DC037FC2DC020ED280F2A3040F08E326B
:100B0000B9F436FC81C1232D2064322E19C036FE83
:100B100006C08AE0989E200D1124922E11C0EAE0B2
:100B20002E9E200D1124222EF32DF0623F2E08C0A0
:100B30008C3621F4832D8068382E02C0883641F42B
:100B4000F70193FD859193FF81917F018111B3CFCF
:100B5000982F9F7D9554933028F40C5F1F4F9FE38F
:100B600099830DC0833631F0833771F0833509F0F6
:100B700059C021C0F801808189830E5F1F4F8824EE
:100B80008394912C530113C02801F2E04F0E511CA5
:100B9000F801A080B18036FE03C0692D70E002C06C
:100BA0006FEF7FEFC5010E9419074C018201F32D01
:100BB000FF773F2E16C0280122E0420E511CF8019B
:100BC000A080B18036FE03C0692D70E002C06FEFD7
:100BD0007FEFC5010E940E074C01F32DF0683F2EF8
:100BE000820133FC1BC0822D90E088169906B0F478
:100BF000B60180E290E00E9424072A94F4CFF50128
:100C000037FC859137FE81915F01B60190E00E942B
:100C1000240721102A9421E0821A9108811491045A
:100C200071F7E8C0843611F0893641F5F80137FED6
:100C300007C060817181828193810C5F1F4F08C062
:100C400060817181072E000C880B990B0E5F1F4F7E
:100C5000F32DFF763F2E97FF09C0909580957095F4
:100C600061957F4F8F4F9F4FF0683F2E2AE030E015
:100C7000A3010E946007882E861845C0853731F48D
:100C8000232D2F7EB22E2AE030E025C0932D997FB0
:100C9000B92E8F36C1F018F4883579F0B5C0803799
:100CA00019F0883721F0B0C0E92FE061BE2EB4FE04
:100CB0000DC0FB2DF460BF2E09C034FE0AC0292FE1
:100CC0002660B22E06C028E030E005C020E130E00A
:100CD00002C020E132E0F801B7FE07C060817181F7
:100CE000828193810C5F1F4F06C06081718180E01B
:100CF00090E00E5F1F4FA3010E946007882E8618A8
:100D0000FB2DFF773F2E36FE0DC0232D2E7FA22E0A
:100D1000891458F434FE0BC032FC09C0832D8E7E3A
:100D2000A82E05C0B82CA32C03C0B82C01C0B92C28
:100D3000A4FE0FC0FE01E80DF11D8081803321F477
:100D40009A2D997EA92E09C0A2FE06C0B394B39431
:100D500004C08A2D867809F0B394A3FC11C0A0FECC
:100D600006C0B21488F4280C922C9B180EC0B21442
:100D700060F4B60180E290E00E942407B394F7CFBC
:100D8000B21418F42B1802C0982C212CA4FE10C009
:100D9000B60180E390E00E942407A2FE17C0A1FCE8
:100DA00003C088E790E002C088E590E0B6010CC07F
:100DB0008A2D867859F0A1FE02C08BE201C080E244
:100DC000A7FC8DE2B60190E00E942407891438F454
:100DD000B60180E390E00E9424079A94F7CF8A94AA
:100DE000F301E80DF11D8081B60190E00E94240717
:100DF0008110F5CF222009F442CEB60180E290E0C6
:100E00000E9424072A94F6CFF6018681978102C0BA
:100E10008FEF9FEF2B96E2E10C94DA07FC0105902F
:100E2000615070400110D8F7809590958E0F9F1FEC
:100E30000895FC016150704001900110D8F7809531
:100E400090958E0F9F1F08950F931F93CF93DF935D
:100E5000FB01238121FD03C08FEF9FEF2CC022FFF8
:100E600016C046815781248135814217530744F4C7
:100E7000A081B1819D012F5F3F4F318320838C93EF
:100E8000268137812F5F3F4F3783268314C08B0124
:100E9000EC01FB010084F185E02D0995892BE1F639
:100EA000D80116968D919C911797019617969C9351
:100EB0008E931697CE01DF91CF911F910F910895D8
:100EC000FA01AA27283051F1203181F1E8946F937B
:100ED0006E7F6E5F7F4F8F4F9F4FAF4FB1E03ED021
:100EE000B4E03CD0670F781F891F9A1FA11D680FBF
:100EF000791F8A1F911DA11D6A0F711D811D911DF2
:100F0000A11D20D009F468943F912AE0269F112466
:100F10003019305D3193DEF6CF010895462F4770CA
:100F2000405D4193B3E00FD0C9F7F6CF462F4F7025
:100F3000405D4A3318F0495D31FD4052419302D083
:100F4000A9F7EACFB4E0A695979587957795679529
:100F5000BA95C9F700976105710508959B01AC0129
:100F60000A2E06945795479537952795BA95C9F750
:100F7000620F731F841F951FA01D08952F923F922B
:100F80004F925F926F927F928F929F92AF92BF9299
:100F9000CF92DF92EF92FF920F931F93CF93DF9345
:100FA000CDB7DEB7CA1BDB0B0FB6F894DEBF0FBEA2
:100FB000CDBF09942A88398848885F846E847D84EF
:100FC0008C849B84AA84B984C884DF80EE80FD80F1
:100FD0000C811B81AA81B981CE0FD11D0FB6F89467
:0E0FE000DEBF0FBECDBFED010895F894FFCF28
:100FEE005374617274205472616E736D6973736998
:100FFE006F6E206E6F742072656365697665642E00
:10100E000A00534C412B57206E6F74207265636536
:10101E00697665642073696E6365206E6F20414347
:10102E004B20726573706F6E73652E0A0041434BD1
:10103E00206E6F74207265636569766564206672D2
:10104E006F6D2073656E64696E67206461746120D4
:10105E00627974652E0A00536C6176652061646452
:10106E0072657373206E6F74207472616E736D6926
:10107E007474656420616E642041434B206E6F74FE
:10108E002072656365697665642E0A004461746139
:10109E002062797465206E6F74207265636569765F
:1010AE00656420616E64204E41434B206E6F742048
:1010BE0073656E742E0A0025642C2025642C202561
:1010CE0064006D696E5F783A2025642C206D61781E
:1010DE005F782025642C206D696E5F792025642C45
:1010EE00206D61785F792025642C206D696E5F7AA2
:1010FE002025642C206D61785F7A202564004F6670
:10110E006673657420583A2025642C204F666673EA
:10111E00657420593A2025642C204F6666736574D9
:08112E00205A3A20256400005C
:00000001FF
