:100000000C9434000C9449000C9449000C94490061
:100010000C9449000C9449000C9449000C9449003C
:100020000C9449000C9449000C9449000C9449002C
:100030000C9449000C9449000C9449000C9449001C
:100040000C9449000C9449000C9449000C9449000C
:100050000C9449000C9449000C9449000C944900FC
:100060000C9449000C94490011241FBECFEFD8E036
:10007000DEBFCDBF11E0A0E0B1E0E2E2F1E002C0FE
:1000800005900D92A831B107D9F70E9470000C9429
:100090008F000C9400001092C50088E08093C4008B
:1000A000E1ECF0E080818861808308959091C00048
:1000B00095FFFCCF8093C60008958091C00087FF14
:1000C000FCCF8091C6000895CF93DF93EC01899116
:1000D000882319F00E945600FACFDF91CF9108953E
:1000E00085E284B90E944B00D5E2C5E0D5B980E035
:1000F00091E00E9464002FEF89E698E12150804052
:100100009040E1F700C00000C5B92FEF89E698E103
:10011000215080409040E1F700C00000E7CFF89404
:02012000FFCF0F
:1001220048656C6C6F2C2053657269616C204D6F51
:080132006E69746F72210A006E
:00000001FF
