:1000000010E0A0E6B0E0E4E7F0E003C0C895319668
:100010000D92A837B107D1F708950895089508956E
:100020001092C50087E08093C400E1ECF0E080818D
:100030008861808308958091C000FDCF8091C000C9
:1000400087FFFCCF8091C60008950E941000C0E693
:10005000D0E08881181624F421960E941B00F9CF65
:100060002FEF89E698E1215080409040E1F700C0F1
:040070000000EFCFCE
:1000740048656C6C6F2C2053657269616C204D6F00
:080084006E69746F72210A001D
:00000001FF
